{
  "contractName": "Auction",
  "abi": [
    {
      "inputs": [
        {
          "internalType": "string",
          "name": "_brand",
          "type": "string"
        },
        {
          "internalType": "string",
          "name": "_rnumber",
          "type": "string"
        },
        {
          "internalType": "uint256",
          "name": "_duration",
          "type": "uint256"
        }
      ],
      "stateMutability": "nonpayable",
      "type": "constructor"
    },
    {
      "anonymous": false,
      "inputs": [
        {
          "indexed": true,
          "internalType": "address",
          "name": "highestBidder",
          "type": "address"
        },
        {
          "indexed": false,
          "internalType": "uint256",
          "name": "highestBid",
          "type": "uint256"
        }
      ],
      "name": "BidEvent",
      "type": "event"
    },
    {
      "anonymous": false,
      "inputs": [
        {
          "indexed": false,
          "internalType": "string",
          "name": "message",
          "type": "string"
        },
        {
          "indexed": false,
          "internalType": "uint256",
          "name": "time",
          "type": "uint256"
        }
      ],
      "name": "CanceledEvent",
      "type": "event"
    },
    {
      "anonymous": false,
      "inputs": [
        {
          "indexed": false,
          "internalType": "address",
          "name": "withdrawer",
          "type": "address"
        },
        {
          "indexed": false,
          "internalType": "uint256",
          "name": "amount",
          "type": "uint256"
        }
      ],
      "name": "WithdrawalEvent",
      "type": "event"
    },
    {
      "inputs": [],
      "name": "Mycar",
      "outputs": [
        {
          "internalType": "string",
          "name": "Brand",
          "type": "string"
        },
        {
          "internalType": "string",
          "name": "Rnumber",
          "type": "string"
        }
      ],
      "stateMutability": "view",
      "type": "function",
      "constant": true
    },
    {
      "inputs": [],
      "name": "STATE",
      "outputs": [
        {
          "internalType": "enum Auction.auction_state",
          "name": "",
          "type": "uint8"
        }
      ],
      "stateMutability": "view",
      "type": "function",
      "constant": true
    },
    {
      "inputs": [],
      "name": "auction_end",
      "outputs": [
        {
          "internalType": "uint256",
          "name": "",
          "type": "uint256"
        }
      ],
      "stateMutability": "view",
      "type": "function",
      "constant": true
    },
    {
      "inputs": [],
      "name": "auction_start",
      "outputs": [
        {
          "internalType": "uint256",
          "name": "",
          "type": "uint256"
        }
      ],
      "stateMutability": "view",
      "type": "function",
      "constant": true
    },
    {
      "inputs": [
        {
          "internalType": "address",
          "name": "",
          "type": "address"
        }
      ],
      "name": "bids",
      "outputs": [
        {
          "internalType": "uint256",
          "name": "",
          "type": "uint256"
        }
      ],
      "stateMutability": "view",
      "type": "function",
      "constant": true
    },
    {
      "inputs": [],
      "name": "highestBid",
      "outputs": [
        {
          "internalType": "uint256",
          "name": "",
          "type": "uint256"
        }
      ],
      "stateMutability": "view",
      "type": "function",
      "constant": true
    },
    {
      "inputs": [],
      "name": "highestBidder",
      "outputs": [
        {
          "internalType": "address",
          "name": "",
          "type": "address"
        }
      ],
      "stateMutability": "view",
      "type": "function",
      "constant": true
    },
    {
      "inputs": [],
      "name": "bid",
      "outputs": [
        {
          "internalType": "bool",
          "name": "",
          "type": "bool"
        }
      ],
      "stateMutability": "payable",
      "type": "function",
      "payable": true
    },
    {
      "inputs": [],
      "name": "withdraw",
      "outputs": [
        {
          "internalType": "bool",
          "name": "",
          "type": "bool"
        }
      ],
      "stateMutability": "nonpayable",
      "type": "function"
    },
    {
      "inputs": [],
      "name": "cancel_auction",
      "outputs": [
        {
          "internalType": "bool",
          "name": "",
          "type": "bool"
        }
      ],
      "stateMutability": "nonpayable",
      "type": "function"
    }
  ],
  "bytecode": "0x60806040523480156200001157600080fd5b50604051620015d4380380620015d48339818101604052810190620000379190620002e3565b336000806101000a81548173ffffffffffffffffffffffffffffffffffffffff021916908373ffffffffffffffffffffffffffffffffffffffff16021790555042600181905550806001546200008e9190620003ac565b6002819055506001600960006101000a81548160ff02191690836001811115620000bd57620000bc620003e7565b5b021790555060405180604001604052808481526020018381525060056000820151816000019081620000f0919062000657565b50602082015181600101908162000108919062000657565b509050505050506200073e565b6000604051905090565b600080fd5b600080fd5b600080fd5b600080fd5b6000601f19601f8301169050919050565b7f4e487b7100000000000000000000000000000000000000000000000000000000600052604160045260246000fd5b6200017e8262000133565b810181811067ffffffffffffffff82111715620001a0576200019f62000144565b5b80604052505050565b6000620001b562000115565b9050620001c3828262000173565b919050565b600067ffffffffffffffff821115620001e657620001e562000144565b5b620001f18262000133565b9050602081019050919050565b60005b838110156200021e57808201518184015260208101905062000201565b60008484015250505050565b6000620002416200023b84620001c8565b620001a9565b90508281526020810184848401111562000260576200025f6200012e565b5b6200026d848285620001fe565b509392505050565b600082601f8301126200028d576200028c62000129565b5b81516200029f8482602086016200022a565b91505092915050565b6000819050919050565b620002bd81620002a8565b8114620002c957600080fd5b50565b600081519050620002dd81620002b2565b92915050565b600080600060608486031215620002ff57620002fe6200011f565b5b600084015167ffffffffffffffff81111562000320576200031f62000124565b5b6200032e8682870162000275565b935050602084015167ffffffffffffffff81111562000352576200035162000124565b5b620003608682870162000275565b92505060406200037386828701620002cc565b9150509250925092565b7f4e487b7100000000000000000000000000000000000000000000000000000000600052601160045260246000fd5b6000620003b982620002a8565b9150620003c683620002a8565b9250828201905080821115620003e157620003e06200037d565b5b92915050565b7f4e487b7100000000000000000000000000000000000000000000000000000000600052602160045260246000fd5b600081519050919050565b7f4e487b7100000000000000000000000000000000000000000000000000000000600052602260045260246000fd5b600060028204905060018216806200046957607f821691505b6020821081036200047f576200047e62000421565b5b50919050565b60008190508160005260206000209050919050565b60006020601f8301049050919050565b600082821b905092915050565b600060088302620004e97fffffffffffffffffffffffffffffffffffffffffffffffffffffffffffffffff82620004aa565b620004f58683620004aa565b95508019841693508086168417925050509392505050565b6000819050919050565b600062000538620005326200052c84620002a8565b6200050d565b620002a8565b9050919050565b6000819050919050565b620005548362000517565b6200056c62000563826200053f565b848454620004b7565b825550505050565b600090565b6200058362000574565b6200059081848462000549565b505050565b5b81811015620005b857620005ac60008262000579565b60018101905062000596565b5050565b601f8211156200060757620005d18162000485565b620005dc846200049a565b81016020851015620005ec578190505b62000604620005fb856200049a565b83018262000595565b50505b505050565b600082821c905092915050565b60006200062c600019846008026200060c565b1980831691505092915050565b600062000647838362000619565b9150826002028217905092915050565b620006628262000416565b67ffffffffffffffff8111156200067e576200067d62000144565b5b6200068a825462000450565b62000697828285620005bc565b600060209050601f831160018114620006cf5760008415620006ba578287015190505b620006c6858262000639565b86555062000736565b601f198416620006df8662000485565b60005b828110156200070957848901518255600182019150602085019450602081019050620006e2565b8683101562000729578489015162000725601f89168262000619565b8355505b6001600288020188555050505b505050505050565b610e86806200074e6000396000f3fe6080604052600436106100915760003560e01c806378f453401161005957806378f453401461017357806391f901571461019e578063c458b65a146101c9578063c486456c146101f4578063d57bde791461021f57610091565b80630216f202146100965780631998aeef146100c25780633ba88ca1146100e05780633ccfd60b1461010b57806362ea82db14610136575b600080fd5b3480156100a257600080fd5b506100ab61024a565b6040516100b9929190610927565b60405180910390f35b6100ca61036c565b6040516100d79190610979565b60405180910390f35b3480156100ec57600080fd5b506100f56105de565b6040516101029190610979565b60405180910390f35b34801561011757600080fd5b506101206106df565b60405161012d9190610979565b60405180910390f35b34801561014257600080fd5b5061015d600480360381019061015891906109f7565b610834565b60405161016a9190610a3d565b60405180910390f35b34801561017f57600080fd5b5061018861084c565b6040516101959190610a3d565b60405180910390f35b3480156101aa57600080fd5b506101b3610852565b6040516101c09190610a67565b60405180910390f35b3480156101d557600080fd5b506101de610878565b6040516101eb9190610a3d565b60405180910390f35b34801561020057600080fd5b5061020961087e565b6040516102169190610af9565b60405180910390f35b34801561022b57600080fd5b50610234610891565b6040516102419190610a3d565b60405180910390f35b600580600001805461025b90610b43565b80601f016020809104026020016040519081016040528092919081815260200182805461028790610b43565b80156102d45780601f106102a9576101008083540402835291602001916102d4565b820191906000526020600020905b8154815290600101906020018083116102b757829003601f168201915b5050505050908060010180546102e990610b43565b80601f016020809104026020016040519081016040528092919081815260200182805461031590610b43565b80156103625780601f1061033757610100808354040283529160200191610362565b820191906000526020600020905b81548152906001019060200180831161034557829003601f168201915b5050505050905082565b600060025442111580156103b2575060018081111561038e5761038d610a82565b5b600960009054906101000a900460ff1660018111156103b0576103af610a82565b5b145b6103f1576040517f08c379a00000000000000000000000000000000000000000000000000000000081526004016103e890610bc0565b60405180910390fd5b6003543411610435576040517f08c379a000000000000000000000000000000000000000000000000000000000815260040161042c90610c2c565b60405180910390fd5b6000600354146104ba5760035460086000600460009054906101000a900473ffffffffffffffffffffffffffffffffffffffff1673ffffffffffffffffffffffffffffffffffffffff1673ffffffffffffffffffffffffffffffffffffffff16815260200190815260200160002060008282546104b29190610c7b565b925050819055505b33600460006101000a81548173ffffffffffffffffffffffffffffffffffffffff021916908373ffffffffffffffffffffffffffffffffffffffff160217905550346003819055506007339080600181540180825580915050600190039060005260206000200160009091909190916101000a81548173ffffffffffffffffffffffffffffffffffffffff021916908373ffffffffffffffffffffffffffffffffffffffff160217905550600460009054906101000a900473ffffffffffffffffffffffffffffffffffffffff1673ffffffffffffffffffffffffffffffffffffffff167f0d993d4f8a84158f5329713d6d13ef54e77b325040c887c8b3e565cfd0cd3e216003546040516105cf9190610a3d565b60405180910390a26001905090565b60008060009054906101000a900473ffffffffffffffffffffffffffffffffffffffff1673ffffffffffffffffffffffffffffffffffffffff163373ffffffffffffffffffffffffffffffffffffffff161461066f576040517f08c379a000000000000000000000000000000000000000000000000000000000815260040161066690610d21565b60405180910390fd5b6000600960006101000a81548160ff0219169083600181111561069557610694610a82565b5b0217905550426002819055507f06b08932edfa95ecf10e18f8e389c58332551bbfe5faf843ed9afb329fd14118426040516106d09190610d8d565b60405180910390a16001905090565b600080600860003373ffffffffffffffffffffffffffffffffffffffff1673ffffffffffffffffffffffffffffffffffffffff16815260200190815260200160002054905060008111610767576040517f08c379a000000000000000000000000000000000000000000000000000000000815260040161075e90610e07565b60405180910390fd5b6000600860003373ffffffffffffffffffffffffffffffffffffffff1673ffffffffffffffffffffffffffffffffffffffff168152602001908152602001600020819055503373ffffffffffffffffffffffffffffffffffffffff166108fc829081150290604051600060405180830381858888f193505050501580156107f2573d6000803e3d6000fd5b507f2f174ca282119315c59efaf21147aef438581dabdeb498198ae28964373dd8bc3382604051610824929190610e27565b60405180910390a1600191505090565b60086020528060005260406000206000915090505481565b60015481565b600460009054906101000a900473ffffffffffffffffffffffffffffffffffffffff1681565b60025481565b600960009054906101000a900460ff1681565b60035481565b600081519050919050565b600082825260208201905092915050565b60005b838110156108d15780820151818401526020810190506108b6565b60008484015250505050565b6000601f19601f8301169050919050565b60006108f982610897565b61090381856108a2565b93506109138185602086016108b3565b61091c816108dd565b840191505092915050565b6000604082019050818103600083015261094181856108ee565b9050818103602083015261095581846108ee565b90509392505050565b60008115159050919050565b6109738161095e565b82525050565b600060208201905061098e600083018461096a565b92915050565b600080fd5b600073ffffffffffffffffffffffffffffffffffffffff82169050919050565b60006109c482610999565b9050919050565b6109d4816109b9565b81146109df57600080fd5b50565b6000813590506109f1816109cb565b92915050565b600060208284031215610a0d57610a0c610994565b5b6000610a1b848285016109e2565b91505092915050565b6000819050919050565b610a3781610a24565b82525050565b6000602082019050610a526000830184610a2e565b92915050565b610a61816109b9565b82525050565b6000602082019050610a7c6000830184610a58565b92915050565b7f4e487b7100000000000000000000000000000000000000000000000000000000600052602160045260246000fd5b60028110610ac257610ac1610a82565b5b50565b6000819050610ad382610ab1565b919050565b6000610ae382610ac5565b9050919050565b610af381610ad8565b82525050565b6000602082019050610b0e6000830184610aea565b92915050565b7f4e487b7100000000000000000000000000000000000000000000000000000000600052602260045260246000fd5b60006002820490506001821680610b5b57607f821691505b602082108103610b6e57610b6d610b14565b5b50919050565b7f41756374696f6e206973206e6f74206163746976650000000000000000000000600082015250565b6000610baa6015836108a2565b9150610bb582610b74565b602082019050919050565b60006020820190508181036000830152610bd981610b9d565b9050919050565b7f596f75722062696420697320746f6f206c6f7700000000000000000000000000600082015250565b6000610c166013836108a2565b9150610c2182610be0565b602082019050919050565b60006020820190508181036000830152610c4581610c09565b9050919050565b7f4e487b7100000000000000000000000000000000000000000000000000000000600052601160045260246000fd5b6000610c8682610a24565b9150610c9183610a24565b9250828201905080821115610ca957610ca8610c4c565b5b92915050565b7f4f6e6c792061756374696f6e206f776e65722063616e20706572666f726d207460008201527f68697320616374696f6e00000000000000000000000000000000000000000000602082015250565b6000610d0b602a836108a2565b9150610d1682610caf565b604082019050919050565b60006020820190508181036000830152610d3a81610cfe565b9050919050565b7f41756374696f6e2063616e63656c6c6564206279206f776e6572000000000000600082015250565b6000610d77601a836108a2565b9150610d8282610d41565b602082019050919050565b60006040820190508181036000830152610da681610d6a565b9050610db56020830184610a2e565b92915050565b7f4e6f2066756e647320746f207769746864726177000000000000000000000000600082015250565b6000610df16014836108a2565b9150610dfc82610dbb565b602082019050919050565b60006020820190508181036000830152610e2081610de4565b9050919050565b6000604082019050610e3c6000830185610a58565b610e496020830184610a2e565b939250505056fea26469706673582212205e2daa5ed30489671b401e1c6b85f67d853fd808ced96d9c0ae889d15de88fe464736f6c63430008130033",
  "immutableReferences": {},
  "source": "// SPDX-License-Identifier: MIT \r\npragma solidity >=0.5.0 <0.9.0;\r\n\r\ncontract Auction {\r\n    address internal auction_owner;\r\n    uint256 public auction_start;\r\n    uint256 public auction_end;\r\n    uint256 public highestBid;\r\n    address public highestBidder;\r\n\r\n    enum auction_state { CANCELLED, STARTED }\r\n    \r\n    struct car { \r\n        string Brand;\r\n        string Rnumber; // Registration number\r\n    }\r\n\r\n    car public Mycar;\r\n    address[] bidders;\r\n    mapping(address => uint) public bids; \r\n    auction_state public STATE;\r\n\r\n    modifier an_ongoing_auction() { \r\n        require(block.timestamp <= auction_end && STATE == auction_state.STARTED, \"Auction is not active\");\r\n        _;\r\n    }\r\n\r\n    modifier only_owner() { \r\n        require(msg.sender == auction_owner, \"Only auction owner can perform this action\");\r\n        _;\r\n    }\r\n\r\n    constructor(string memory _brand, string memory _rnumber, uint256 _duration) {\r\n        auction_owner = msg.sender;\r\n        auction_start = block.timestamp;\r\n        auction_end = auction_start + _duration;\r\n        STATE = auction_state.STARTED; \r\n        Mycar = car(_brand, _rnumber);\r\n    }\r\n\r\n    function bid() public payable an_ongoing_auction returns (bool) {\r\n        require(msg.value > highestBid, \"Your bid is too low\");\r\n        \r\n        if (highestBid != 0) {\r\n            bids[highestBidder] += highestBid;\r\n        }\r\n\r\n        highestBidder = msg.sender;\r\n        highestBid = msg.value;\r\n        bidders.push(msg.sender);\r\n\r\n        emit BidEvent(highestBidder, highestBid);\r\n        return true;\r\n    }\r\n\r\n    function withdraw() public returns (bool) {\r\n        uint amount = bids[msg.sender];\r\n        require(amount > 0, \"No funds to withdraw\");\r\n\r\n        bids[msg.sender] = 0;\r\n        payable(msg.sender).transfer(amount);\r\n\r\n        emit WithdrawalEvent(msg.sender, amount);\r\n        return true;\r\n    }\r\n\r\n    function cancel_auction() external only_owner returns (bool) {\r\n        STATE = auction_state.CANCELLED;\r\n        auction_end = block.timestamp;\r\n\r\n        emit CanceledEvent(\"Auction cancelled by owner\", block.timestamp);\r\n        return true;\r\n    }\r\n\r\n    // Events\r\n    event BidEvent(address indexed highestBidder, uint256 highestBid); \r\n    event WithdrawalEvent(address withdrawer, uint256 amount);\r\n    event CanceledEvent(string message, uint256 time);\r\n}\r\n",
  "sourcePath": "D:\\Blockchain\\BCT\\Lab4A-auction-dapp\\contracts\\Auction.sol",
  "compiler": {
    "name": "solc",
    "version": "0.8.19+commit.7dd6d404.Emscripten.clang"
  },
  "schemaVersion": "3.4.16",
  "updatedAt": "2024-09-30T02:44:38.322Z",
  "networkType": "ethereum",
  "devdoc": {
    "kind": "dev",
    "methods": {},
    "version": 1
  },
  "userdoc": {
    "kind": "user",
    "methods": {},
    "version": 1
  }
}